{
  "contractName": "Channel1n1",
  "abi": [
    {
      "constant": true,
      "inputs": [
        {
          "name": "hash",
          "type": "bytes32"
        },
        {
          "name": "sig",
          "type": "bytes"
        }
      ],
      "name": "recover",
      "outputs": [
        {
          "name": "",
          "type": "address"
        }
      ],
      "payable": false,
      "stateMutability": "pure",
      "type": "function"
    },
    {
      "constant": true,
      "inputs": [
        {
          "name": "",
          "type": "uint256"
        }
      ],
      "name": "channels",
      "outputs": [
        {
          "components": [
            {
              "name": "status",
              "type": "uint8"
            },
            {
              "name": "nonce",
              "type": "uint256"
            },
            {
              "name": "latitude",
              "type": "int32"
            },
            {
              "name": "longitude",
              "type": "int32"
            },
            {
              "name": "direction",
              "type": "uint16"
            },
            {
              "name": "speed",
              "type": "uint16"
            },
            {
              "name": "acceleration",
              "type": "int8"
            }
          ],
          "name": "stateCar1",
          "type": "tuple"
        },
        {
          "components": [
            {
              "name": "status",
              "type": "uint8"
            },
            {
              "name": "nonce",
              "type": "uint256"
            },
            {
              "name": "latitude",
              "type": "int32"
            },
            {
              "name": "longitude",
              "type": "int32"
            },
            {
              "name": "direction",
              "type": "uint16"
            },
            {
              "name": "speed",
              "type": "uint16"
            },
            {
              "name": "acceleration",
              "type": "int8"
            }
          ],
          "name": "stateCar2",
          "type": "tuple"
        },
        {
          "name": "car1",
          "type": "address"
        },
        {
          "name": "car2",
          "type": "address"
        },
        {
          "name": "firstCloseApproval",
          "type": "address"
        },
        {
          "name": "startingBlock",
          "type": "uint256"
        },
        {
          "name": "closed",
          "type": "bool"
        }
      ],
      "payable": false,
      "stateMutability": "view",
      "type": "function"
    },
    {
      "anonymous": false,
      "inputs": [
        {
          "indexed": false,
          "name": "channelId",
          "type": "uint256"
        },
        {
          "indexed": true,
          "name": "car",
          "type": "address"
        }
      ],
      "name": "OnOpenChannel",
      "type": "event"
    },
    {
      "anonymous": false,
      "inputs": [
        {
          "indexed": false,
          "name": "channelId",
          "type": "uint256"
        },
        {
          "indexed": true,
          "name": "car",
          "type": "address"
        },
        {
          "indexed": false,
          "name": "startingBlock",
          "type": "uint256"
        }
      ],
      "name": "OnJoinChannel",
      "type": "event"
    },
    {
      "anonymous": false,
      "inputs": [
        {
          "indexed": true,
          "name": "channelId",
          "type": "uint256"
        },
        {
          "indexed": true,
          "name": "car",
          "type": "address"
        },
        {
          "indexed": false,
          "name": "closed",
          "type": "bool"
        }
      ],
      "name": "OnCloseChannel",
      "type": "event"
    },
    {
      "constant": false,
      "inputs": [],
      "name": "openChannel",
      "outputs": [],
      "payable": true,
      "stateMutability": "payable",
      "type": "function"
    },
    {
      "constant": false,
      "inputs": [
        {
          "name": "_channelId",
          "type": "uint256"
        }
      ],
      "name": "joinChannel",
      "outputs": [],
      "payable": true,
      "stateMutability": "payable",
      "type": "function"
    },
    {
      "constant": false,
      "inputs": [
        {
          "name": "_channelId",
          "type": "uint256"
        },
        {
          "name": "_sig",
          "type": "bytes"
        },
        {
          "name": "_status",
          "type": "uint8"
        },
        {
          "name": "_nonce",
          "type": "uint256"
        },
        {
          "name": "_latitude",
          "type": "int32"
        },
        {
          "name": "_longitude",
          "type": "int32"
        },
        {
          "name": "_direction",
          "type": "uint16"
        },
        {
          "name": "_speed",
          "type": "uint16"
        },
        {
          "name": "_acceleration",
          "type": "int8"
        }
      ],
      "name": "closeChannel",
      "outputs": [],
      "payable": false,
      "stateMutability": "nonpayable",
      "type": "function"
    },
    {
      "constant": true,
      "inputs": [],
      "name": "getChannels",
      "outputs": [
        {
          "components": [
            {
              "components": [
                {
                  "name": "status",
                  "type": "uint8"
                },
                {
                  "name": "nonce",
                  "type": "uint256"
                },
                {
                  "name": "latitude",
                  "type": "int32"
                },
                {
                  "name": "longitude",
                  "type": "int32"
                },
                {
                  "name": "direction",
                  "type": "uint16"
                },
                {
                  "name": "speed",
                  "type": "uint16"
                },
                {
                  "name": "acceleration",
                  "type": "int8"
                }
              ],
              "name": "stateCar1",
              "type": "tuple"
            },
            {
              "components": [
                {
                  "name": "status",
                  "type": "uint8"
                },
                {
                  "name": "nonce",
                  "type": "uint256"
                },
                {
                  "name": "latitude",
                  "type": "int32"
                },
                {
                  "name": "longitude",
                  "type": "int32"
                },
                {
                  "name": "direction",
                  "type": "uint16"
                },
                {
                  "name": "speed",
                  "type": "uint16"
                },
                {
                  "name": "acceleration",
                  "type": "int8"
                }
              ],
              "name": "stateCar2",
              "type": "tuple"
            },
            {
              "name": "car1",
              "type": "address"
            },
            {
              "name": "car2",
              "type": "address"
            },
            {
              "name": "firstCloseApproval",
              "type": "address"
            },
            {
              "name": "startingBlock",
              "type": "uint256"
            },
            {
              "name": "closed",
              "type": "bool"
            }
          ],
          "name": "chans",
          "type": "tuple[]"
        }
      ],
      "payable": false,
      "stateMutability": "view",
      "type": "function"
    }
  ],
  "bytecode": "0x608060405234801561001057600080fd5b506120cb806100206000396000f3fe608060405260043610610078576000357c0100000000000000000000000000000000000000000000000000000000900463ffffffff16806319045a251461007d5780632819cc0c146100ba5780636859eb93146100d657806389be87a1146100ff5780639575f6ac14610109578063e5949b5d14610134575b600080fd5b34801561008957600080fd5b506100a4600480360361009f91908101906116e7565b610177565b6040516100b19190611c86565b60405180910390f35b6100d460048036036100cf919081019061173b565b61025b565b005b3480156100e257600080fd5b506100fd60048036036100f89190810190611764565b6106b1565b005b610107610bd1565b005b34801561011557600080fd5b5061011e610e03565b60405161012b9190611ca1565b60405180910390f35b34801561014057600080fd5b5061015b6004803603610156919081019061173b565b611150565b60405161016e9796959493929190611dbe565b60405180910390f35b600080600080604185511415156101945760009350505050610255565b6020850151925060408501519150606085015160001a9050601b8160ff1610156101bf57601b810190505b601b8160ff16141580156101d75750601c8160ff1614155b156101e85760009350505050610255565b60018682858560405160008152602001604052604051808581526020018460ff1660ff1681526020018381526020018281526020019450505050506020604051602081039080840390855afa158015610245573d6000803e3d6000fd5b5050506020604051035193505050505b92915050565b600080549050811015156102a4576040517f08c379a000000000000000000000000000000000000000000000000000000000815260040161029b90611cfe565b60405180910390fd5b3373ffffffffffffffffffffffffffffffffffffffff166000828154811015156102ca57fe5b90600052602060002090600b020160060160009054906101000a900473ffffffffffffffffffffffffffffffffffffffff1673ffffffffffffffffffffffffffffffffffffffff161415801561038d5750600073ffffffffffffffffffffffffffffffffffffffff1660008281548110151561034257fe5b90600052602060002090600b020160060160009054906101000a900473ffffffffffffffffffffffffffffffffffffffff1673ffffffffffffffffffffffffffffffffffffffff1614155b80156104055750600073ffffffffffffffffffffffffffffffffffffffff166000828154811015156103bb57fe5b90600052602060002090600b020160070160009054906101000a900473ffffffffffffffffffffffffffffffffffffffff1673ffffffffffffffffffffffffffffffffffffffff16145b1515610446576040517f08c379a000000000000000000000000000000000000000000000000000000000815260040161043d90611d3e565b60405180910390fd5b6000808281548110151561045657fe5b90600052602060002090600b0201905061046e6113c0565b60e0604051908101604052806002600381111561048757fe5b815260200160008152602001624978dd60030b81526020016211ab8460030b8152602001604b61ffff168152602001604b61ffff1681526020017fffffffffffffffffffffffffffffffffffffffffffffffffffffffffffffffff60000b8152509050338260070160006101000a81548173ffffffffffffffffffffffffffffffffffffffff021916908373ffffffffffffffffffffffffffffffffffffffff16021790555060028260000160000160006101000a81548160ff0219169083600381111561055157fe5b0217905550808260030160008201518160000160006101000a81548160ff0219169083600381111561057f57fe5b02179055506020820151816001015560408201518160020160006101000a81548163ffffffff021916908360030b63ffffffff16021790555060608201518160020160046101000a81548163ffffffff021916908360030b63ffffffff16021790555060808201518160020160086101000a81548161ffff021916908361ffff16021790555060a082015181600201600a6101000a81548161ffff021916908361ffff16021790555060c082015181600201600c6101000a81548160ff021916908360000b60ff1602179055509050504382600901819055503373ffffffffffffffffffffffffffffffffffffffff167ffa8ad67e9b30c8057f873fb0233802683188f35cba115cc22662bdbc565fed8a8484600901546040516106a4929190611edb565b60405180910390a2505050565b6000808a8154811015156106c157fe5b90600052602060002090600b0201905060038860ff16141515610719576040517f08c379a000000000000000000000000000000000000000000000000000000000815260040161071090611d5e565b60405180910390fd5b3373ffffffffffffffffffffffffffffffffffffffff168160060160009054906101000a900473ffffffffffffffffffffffffffffffffffffffff1673ffffffffffffffffffffffffffffffffffffffff1614806107c657503373ffffffffffffffffffffffffffffffffffffffff168160070160009054906101000a900473ffffffffffffffffffffffffffffffffffffffff1673ffffffffffffffffffffffffffffffffffffffff16145b1515610807576040517f08c379a00000000000000000000000000000000000000000000000000000000081526004016107fe90611d7e565b60405180910390fd5b80600a0160009054906101000a900460ff1615151561085b576040517f08c379a000000000000000000000000000000000000000000000000000000000815260040161085290611d9e565b60405180910390fd5b8060080160009054906101000a900473ffffffffffffffffffffffffffffffffffffffff1673ffffffffffffffffffffffffffffffffffffffff163373ffffffffffffffffffffffffffffffffffffffff16141515156108f0576040517f08c379a00000000000000000000000000000000000000000000000000000000081526004016108e790611cde565b60405180910390fd5b60003373ffffffffffffffffffffffffffffffffffffffff168260060160009054906101000a900473ffffffffffffffffffffffffffffffffffffffff1673ffffffffffffffffffffffffffffffffffffffff1614610973578160060160009054906101000a900473ffffffffffffffffffffffffffffffffffffffff16610999565b8160070160009054906101000a900473ffffffffffffffffffffffffffffffffffffffff165b905060008b338b8b8b8b8b8b8b6040516020016109be99989796959493929190611e4e565b60405160208183030381529060405280519060200120905060008160405160200180807f19457468657265756d205369676e6564204d6573736167653a0a333200000000815250601c018281526020019150506040516020818303038152906040528051906020012090508273ffffffffffffffffffffffffffffffffffffffff16610a4a828e610177565b73ffffffffffffffffffffffffffffffffffffffff16141515610aa2576040517f08c379a0000000000000000000000000000000000000000000000000000000008152600401610a9990611d1e565b60405180910390fd5b600073ffffffffffffffffffffffffffffffffffffffff168460080160009054906101000a900473ffffffffffffffffffffffffffffffffffffffff1673ffffffffffffffffffffffffffffffffffffffff16141515610b1e57600184600a0160006101000a81548160ff021916908315150217905550610b62565b338460080160006101000a81548173ffffffffffffffffffffffffffffffffffffffff021916908373ffffffffffffffffffffffffffffffffffffffff1602179055505b3373ffffffffffffffffffffffffffffffffffffffff168d7f874bbc37ac55f502731f6472dd6aead7d5246ad736ec54b8a4c5ee7a2c377d5f86600a0160009054906101000a900460ff16604051610bba9190611cc3565b60405180910390a350505050505050505050505050565b60008080549050905060008054809190600101610bee9190611419565b50610bf76113c0565b60e06040519081016040528060016003811115610c1057fe5b8152602001600081526020016246910460030b81526020016215e88060030b8152602001600061ffff16815260200160e861ffff168152602001600160000b815250905060008083815481101515610c6457fe5b90600052602060002090600b02019050338160060160006101000a81548173ffffffffffffffffffffffffffffffffffffffff021916908373ffffffffffffffffffffffffffffffffffffffff160217905550818160000160008201518160000160006101000a81548160ff02191690836003811115610ce057fe5b02179055506020820151816001015560408201518160020160006101000a81548163ffffffff021916908360030b63ffffffff16021790555060608201518160020160046101000a81548163ffffffff021916908360030b63ffffffff16021790555060808201518160020160086101000a81548161ffff021916908361ffff16021790555060a082015181600201600a6101000a81548161ffff021916908361ffff16021790555060c082015181600201600c6101000a81548160ff021916908360000b60ff1602179055509050503373ffffffffffffffffffffffffffffffffffffffff167ffdabd7323bc277e852cedff2026353c0e2fdc68f973db1c1a3fbc90e0443a0c684604051610df69190611e33565b60405180910390a2505050565b60606000805480602002602001604051908101604052809291908181526020016000905b8282101561114757838290600052602060002090600b020160e060405190810160405290816000820160e060405190810160405290816000820160009054906101000a900460ff166003811115610e7a57fe5b6003811115610e8557fe5b8152602001600182015481526020016002820160009054906101000a900460030b60030b60030b81526020016002820160049054906101000a900460030b60030b60030b81526020016002820160089054906101000a900461ffff1661ffff1661ffff16815260200160028201600a9054906101000a900461ffff1661ffff1661ffff16815260200160028201600c9054906101000a900460000b60000b60000b8152505081526020016003820160e060405190810160405290816000820160009054906101000a900460ff166003811115610f5d57fe5b6003811115610f6857fe5b8152602001600182015481526020016002820160009054906101000a900460030b60030b60030b81526020016002820160049054906101000a900460030b60030b60030b81526020016002820160089054906101000a900461ffff1661ffff1661ffff16815260200160028201600a9054906101000a900461ffff1661ffff1661ffff16815260200160028201600c9054906101000a900460000b60000b60000b8152505081526020016006820160009054906101000a900473ffffffffffffffffffffffffffffffffffffffff1673ffffffffffffffffffffffffffffffffffffffff1673ffffffffffffffffffffffffffffffffffffffff1681526020016007820160009054906101000a900473ffffffffffffffffffffffffffffffffffffffff1673ffffffffffffffffffffffffffffffffffffffff1673ffffffffffffffffffffffffffffffffffffffff1681526020016008820160009054906101000a900473ffffffffffffffffffffffffffffffffffffffff1673ffffffffffffffffffffffffffffffffffffffff1673ffffffffffffffffffffffffffffffffffffffff16815260200160098201548152602001600a820160009054906101000a900460ff16151515158152505081526020019060010190610e27565b50505050905090565b60008181548110151561115f57fe5b90600052602060002090600b02016000915090508060000160e060405190810160405290816000820160009054906101000a900460ff1660038111156111a157fe5b60038111156111ac57fe5b8152602001600182015481526020016002820160009054906101000a900460030b60030b60030b81526020016002820160049054906101000a900460030b60030b60030b81526020016002820160089054906101000a900461ffff1661ffff1661ffff16815260200160028201600a9054906101000a900461ffff1661ffff1661ffff16815260200160028201600c9054906101000a900460000b60000b60000b81525050908060030160e060405190810160405290816000820160009054906101000a900460ff16600381111561128057fe5b600381111561128b57fe5b8152602001600182015481526020016002820160009054906101000a900460030b60030b60030b81526020016002820160049054906101000a900460030b60030b60030b81526020016002820160089054906101000a900461ffff1661ffff1661ffff16815260200160028201600a9054906101000a900461ffff1661ffff1661ffff16815260200160028201600c9054906101000a900460000b60000b60000b81525050908060060160009054906101000a900473ffffffffffffffffffffffffffffffffffffffff16908060070160009054906101000a900473ffffffffffffffffffffffffffffffffffffffff16908060080160009054906101000a900473ffffffffffffffffffffffffffffffffffffffff169080600901549080600a0160009054906101000a900460ff16905087565b60e060405190810160405280600060038111156113d957fe5b815260200160008152602001600060030b8152602001600060030b8152602001600061ffff168152602001600061ffff1681526020016000800b81525090565b81548183558181111561144657600b0281600b028360005260206000209182019101611445919061144b565b5b505050565b61161691905b80821115611612576000808201600080820160006101000a81549060ff021916905560018201600090556002820160006101000a81549063ffffffff02191690556002820160046101000a81549063ffffffff02191690556002820160086101000a81549061ffff021916905560028201600a6101000a81549061ffff021916905560028201600c6101000a81549060ff0219169055505060038201600080820160006101000a81549060ff021916905560018201600090556002820160006101000a81549063ffffffff02191690556002820160046101000a81549063ffffffff02191690556002820160086101000a81549061ffff021916905560028201600a6101000a81549061ffff021916905560028201600c6101000a81549060ff021916905550506006820160006101000a81549073ffffffffffffffffffffffffffffffffffffffff02191690556007820160006101000a81549073ffffffffffffffffffffffffffffffffffffffff02191690556008820160006101000a81549073ffffffffffffffffffffffffffffffffffffffff02191690556009820160009055600a820160006101000a81549060ff021916905550600b01611451565b5090565b90565b60006116258235612027565b905092915050565b600082601f830112151561164057600080fd5b813561165361164e82611f31565b611f04565b9150808252602083016020830185838301111561166f57600080fd5b61167a838284612082565b50505092915050565b600061168f8235612031565b905092915050565b60006116a3823561203e565b905092915050565b60006116b7823561204b565b905092915050565b60006116cb8235612059565b905092915050565b60006116df8235612063565b905092915050565b600080604083850312156116fa57600080fd5b600061170885828601611619565b925050602083013567ffffffffffffffff81111561172557600080fd5b6117318582860161162d565b9150509250929050565b60006020828403121561174d57600080fd5b600061175b848285016116bf565b91505092915050565b60008060008060008060008060006101208a8c03121561178357600080fd5b60006117918c828d016116bf565b99505060208a013567ffffffffffffffff8111156117ae57600080fd5b6117ba8c828d0161162d565b98505060406117cb8c828d016116d3565b97505060606117dc8c828d016116bf565b96505060806117ed8c828d01611683565b95505060a06117fe8c828d01611683565b94505060c061180f8c828d016116ab565b93505060e06118208c828d016116ab565b9250506101006118328c828d01611697565b9150509295985092959850929598565b61184b81611f94565b82525050565b61185a81611f82565b82525050565b600061186b82611f6a565b80845260208401935061187d83611f5d565b60005b828110156118b057611893868351611b37565b61189c82611f75565b915061026086019550600181019050611880565b50849250505092915050565b6118c581611fa6565b82525050565b6118d481612070565b82525050565b6118e381611fc8565b82525050565b6118f281611fd5565b82525050565b6000605682527f54686973207061727469636970616e7420616c726561647920636c6f7365642060208301527f746865206368616e6e656c20616e6420726571756972657320746865206f707060408301527f6f6e656e7420746f20636c6f73652061732077656c6c000000000000000000006060830152608082019050919050565b6000601882527f4368616e6e656c494420646f6573206e6f7420657869737400000000000000006020830152604082019050919050565b6000601782527f546865207369676e657220697320696e636f72726563740000000000000000006020830152604082019050919050565b6000603182527f54686973206368616e6e656c2069732066756c6c206f72206e6f7420696e697460208301527f69616c697a656420636f72726563746c790000000000000000000000000000006040830152606082019050919050565b6000603c82527f54686520636172206e6565647320746f2068617665206265656e2072656c656160208301527f736564206265666f726520636c6f73696e672061206368616e6e656c000000006040830152606082019050919050565b6000603382527f4f6e6c792061207061727469636970616e7420697320616c6c6f77656420746f60208301527f20636c6f73652074686973204368616e6e656c000000000000000000000000006040830152606082019050919050565b6000601e82527f54686973206368616e6e656c20697320636c6f73656420616c726561647900006020830152604082019050919050565b61026082016000820151611b4e6000850182611bcb565b506020820151611b6160e0850182611bcb565b506040820151611b756101c0850182611851565b506060820151611b896101e0850182611851565b506080820151611b9d610200850182611851565b5060a0820151611bb1610220850182611c68565b5060c0820151611bc56102408501826118bc565b50505050565b60e082016000820151611be160008501826118cb565b506020820151611bf46020850182611c68565b506040820151611c0760408501826118da565b506060820151611c1a60608501826118da565b506080820151611c2d6080850182611c59565b5060a0820151611c4060a0850182611c59565b5060c0820151611c5360c08501826118e9565b50505050565b611c6281611fe2565b82525050565b611c7181612010565b82525050565b611c808161201a565b82525050565b6000602082019050611c9b6000830184611851565b92915050565b60006020820190508181036000830152611cbb8184611860565b905092915050565b6000602082019050611cd860008301846118bc565b92915050565b60006020820190508181036000830152611cf7816118f8565b9050919050565b60006020820190508181036000830152611d178161197b565b9050919050565b60006020820190508181036000830152611d37816119b2565b9050919050565b60006020820190508181036000830152611d57816119e9565b9050919050565b60006020820190508181036000830152611d7781611a46565b9050919050565b60006020820190508181036000830152611d9781611aa3565b9050919050565b60006020820190508181036000830152611db781611b00565b9050919050565b600061026082019050611dd4600083018a611bcb565b611de160e0830189611bcb565b611def6101c0830188611851565b611dfd6101e0830187611851565b611e0b610200830186611851565b611e19610220830185611c68565b611e276102408301846118bc565b98975050505050505050565b6000602082019050611e486000830184611c68565b92915050565b600061012082019050611e64600083018c611c68565b611e71602083018b611842565b611e7e604083018a611c77565b611e8b6060830189611c68565b611e9860808301886118da565b611ea560a08301876118da565b611eb260c0830186611c59565b611ebf60e0830185611c59565b611ecd6101008301846118e9565b9a9950505050505050505050565b6000604082019050611ef06000830185611c68565b611efd6020830184611c68565b9392505050565b6000604051905081810181811067ffffffffffffffff82111715611f2757600080fd5b8060405250919050565b600067ffffffffffffffff821115611f4857600080fd5b601f19601f8301169050602081019050919050565b6000602082019050919050565b600081519050919050565b6000602082019050919050565b6000611f8d82611ff0565b9050919050565b6000611f9f82611ff0565b9050919050565b60008115159050919050565b6000600482101515611fc057fe5b819050919050565b60008160030b9050919050565b60008160000b9050919050565b600061ffff82169050919050565b600073ffffffffffffffffffffffffffffffffffffffff82169050919050565b6000819050919050565b600060ff82169050919050565b6000819050919050565b60008160030b9050919050565b60008160000b9050919050565b600061ffff82169050919050565b6000819050919050565b600060ff82169050919050565b600061207b82611fb2565b9050919050565b8281833760008383015250505056fea265627a7a723058202477889f9f40d50f4aae07204dafeb0f49181105d8db4f48d52e18a3a3b7d8476c6578706572696d656e74616cf50037",
  "source": "pragma solidity ^0.5.0;\npragma experimental ABIEncoderV2;\n\nimport \"./ECRecovery.sol\";\n\n/// @author Julian Sakowski\n/// @title A prototype state channel contract\ncontract Channel1n1 is ECRecovery{\n\n  enum Status { IDLE, CONNECTING, CONNECTED, RELEASED }\n\n  struct StateVector {\n    Status status;\n    uint256 nonce;\n    int32 latitude; // in DD(Decimal Degrees) - xx.xxxxx between 90 and -90\n    int32 longitude; // in DD(Decimal Degrees) - xx.xxxxx between 180 and -180\n    uint16 direction; // in degrees\n    uint16 speed; // in km/h\n    int8 acceleration; // in m/s^2\n  }\n\n  struct Channel {\n    StateVector stateCar1;\n    StateVector stateCar2;\n    address car1;\n    address car2;\n    address firstCloseApproval;\n    uint256 startingBlock;\n    bool closed;\n  }\n\n  Channel[] public channels;\n\n  event OnOpenChannel(uint256 channelId, address indexed car);\n  event OnJoinChannel(uint256 channelId, address indexed car, uint256 startingBlock);\n  event OnCloseChannel(uint256 indexed channelId, address indexed car, bool closed);\n\n  /// @dev Car1 opens a channel and waits for car2 to join\n  function openChannel() public payable {\n    uint256 _channelId = channels.length;\n    channels.length++;\n\n    // setup stateVector\n    StateVector memory stateVector = StateVector(Status.CONNECTING, 0, 4624644, 1435776, 0, 232, 1);\n\n    // setup channel\n    Channel storage channel = channels[_channelId];\n    channel.car1 = msg.sender;\n    channel.stateCar1 = stateVector;\n\n    emit OnOpenChannel(_channelId, msg.sender);\n  }\n\n  /// @dev Car2 joins an already opened channel\n  function joinChannel(uint256 _channelId) public payable {\n    require(_channelId < channels.length,\n      \"ChannelID does not exist\");\n    require(\n      (channels[_channelId].car1 != msg.sender) &&\n      (channels[_channelId].car1 != address(0)) &&\n      (channels[_channelId].car2 == address(0)),\n      \"This channel is full or not initialized correctly\");\n\n    Channel storage channel = channels[_channelId];\n\n    // setup stateVector\n    StateVector memory stateVector = StateVector(Status.CONNECTED, 0, 4815069, 1158020, 75, 75, -1);\n\n    // setup channel\n    channel.car2 = msg.sender;\n    channel.stateCar1.status = Status.CONNECTED;\n    channel.stateCar2 = stateVector;\n    channel.startingBlock = block.number;\n\n    emit OnJoinChannel(_channelId, msg.sender, channel.startingBlock);\n  }\n\n  /// @dev Closes the channel, both cars must call this for it to be succesfully closed\n  function closeChannel(\n    uint256 _channelId,\n    bytes memory _sig,\n    uint8 _status,\n    uint256 _nonce,\n    int32 _latitude,\n    int32 _longitude,\n    uint16 _direction,\n    uint16 _speed,\n    int8 _acceleration\n  )\n  public\n  {\n    Channel storage channel = channels[_channelId];\n    require(_status == 3, \"The car needs to have been released before closing a channel\");\n    require(channel.car1 == msg.sender || channel.car2 == msg.sender, \"Only a participant is allowed to close this Channel\");\n    require(!channel.closed, \"This channel is closed already\");\n    require(msg.sender != channel.firstCloseApproval, \"This participant already closed the channel and requires the opponent to close as well\");\n    \n    address _secondCar = (channel.car1 == msg.sender) ? channel.car2 : channel.car1;\n\n    bytes32 _hash = keccak256(abi.encode(_channelId, msg.sender, _status, _nonce, _latitude, _longitude, _direction, _speed, _acceleration));\n    bytes32 _hashKeccak = keccak256(abi.encodePacked(\"\\x19Ethereum Signed Message:\\n32\", _hash));\n\n    require(recover(_hashKeccak, _sig) == _secondCar, \"The signer is incorrect\");\n\n    // one car already approved to close\n    if (channel.firstCloseApproval != address(0)) {\n      channel.closed = true;\n    } else { // the first time close is called on this channel\n      channel.firstCloseApproval = msg.sender;\n    }\n\n    emit OnCloseChannel(_channelId, msg.sender, channel.closed);\n  }\n\n  /// @dev Returns all channels\n  function getChannels() public view returns(Channel[] memory chans){\n    return channels;\n  }\n}",
  "sourcePath": "/Users/Juuu/Library/Mobile Documents/com~apple~CloudDocs/Studium/Master/LMU Informatik (MA)/Thesis/contractImplementation/contracts/Channel1n1.sol",
  "compiler": {
    "name": "solc",
    "version": "0.5.0+commit.1d4f565a.Emscripten.clang"
  },
  "schemaVersion": "3.0.16",
  "updatedAt": "2019-10-26T18:13:48.623Z",
  "devdoc": {
    "author": "Julian Sakowski",
    "methods": {
      "closeChannel(uint256,bytes,uint8,uint256,int32,int32,uint16,uint16,int8)": {
        "details": "Closes the channel, both cars must call this for it to be succesfully closed"
      },
      "getChannels()": {
        "details": "Returns all channels"
      },
      "joinChannel(uint256)": {
        "details": "Car2 joins an already opened channel"
      },
      "openChannel()": {
        "details": "Car1 opens a channel and waits for car2 to join"
      },
      "recover(bytes32,bytes)": {
        "details": "Recover signer address from a message by using his signature",
        "params": {
          "hash": "bytes32 message, the hash is the signed message. What is recovered is the signer address.",
          "sig": "bytes signature, the signature is generated using web3.eth.sign()"
        }
      }
    },
    "title": "A prototype state channel contract"
  },
  "userdoc": {
    "methods": {}
  }
}