{
  "contractName": "KVstore",
  "abi": [
    {
      "constant": true,
      "inputs": [
        {
          "name": "key",
          "type": "string"
        }
      ],
      "name": "get",
      "outputs": [
        {
          "name": "",
          "type": "string"
        }
      ],
      "payable": false,
      "stateMutability": "view",
      "type": "function"
    },
    {
      "constant": false,
      "inputs": [
        {
          "name": "key",
          "type": "string"
        },
        {
          "name": "value",
          "type": "string"
        }
      ],
      "name": "set",
      "outputs": [],
      "payable": false,
      "stateMutability": "nonpayable",
      "type": "function"
    }
  ],
  "bytecode": "0x608060405234801561001057600080fd5b50610553806100206000396000f3fe60806040526004361061004c576000357c0100000000000000000000000000000000000000000000000000000000900463ffffffff168063693ec85e14610051578063e942b51614610192575b600080fd5b34801561005d57600080fd5b506101176004803603602081101561007457600080fd5b810190808035906020019064010000000081111561009157600080fd5b8201836020820111156100a357600080fd5b803590602001918460018302840111640100000000831117156100c557600080fd5b91908080601f016020809104026020016040519081016040528093929190818152602001838380828437600081840152601f19601f8201169050808301925050505050505091929192905050506102f1565b6040518080602001828103825283818151815260200191508051906020019080838360005b8381101561015757808201518184015260208101905061013c565b50505050905090810190601f1680156101845780820380516001836020036101000a031916815260200191505b509250505060405180910390f35b34801561019e57600080fd5b506102ef600480360360408110156101b557600080fd5b81019080803590602001906401000000008111156101d257600080fd5b8201836020820111156101e457600080fd5b8035906020019184600183028401116401000000008311171561020657600080fd5b91908080601f016020809104026020016040519081016040528093929190818152602001838380828437600081840152601f19601f8201169050808301925050505050505091929192908035906020019064010000000081111561026957600080fd5b82018360208201111561027b57600080fd5b8035906020019184600183028401116401000000008311171561029d57600080fd5b91908080601f016020809104026020016040519081016040528093929190818152602001838380828437600081840152601f19601f8201169050808301925050505050505091929192905050506103fe565b005b60606000826040518082805190602001908083835b60208310151561032b5780518252602082019150602081019050602083039250610306565b6001836020036101000a03801982511681845116808217855250505050505090500191505090815260200160405180910390208054600181600116156101000203166002900480601f0160208091040260200160405190810160405280929190818152602001828054600181600116156101000203166002900480156103f25780601f106103c7576101008083540402835291602001916103f2565b820191906000526020600020905b8154815290600101906020018083116103d557829003601f168201915b50505050509050919050565b806000836040518082805190602001908083835b6020831015156104375780518252602082019150602081019050602083039250610412565b6001836020036101000a0380198251168184511680821785525050505050509050019150509081526020016040518091039020908051906020019061047d929190610482565b505050565b828054600181600116156101000203166002900490600052602060002090601f016020900481019282601f106104c357805160ff19168380011785556104f1565b828001600101855582156104f1579182015b828111156104f05782518255916020019190600101906104d5565b5b5090506104fe9190610502565b5090565b61052491905b80821115610520576000816000905550600101610508565b5090565b9056fea165627a7a72305820ba58adbf1d5401e6b126d87a87067c03ac2d18e0a5dbce882a06a0ce448cbf4f0029",
  "source": "pragma solidity ^0.5.0;\n\ncontract KVstore {\n\n  mapping(string=>string) store;\n\n  function get(string memory key) public view returns(string memory) {\n    return store[key];\n  }\n  function set(string memory key, string memory value) public {\n    store[key] = value;\n  }\n}",
  "sourcePath": "/Users/Juuu/Library/Mobile Documents/com~apple~CloudDocs/Studium/Master/LMU Informatik (MA)/Thesis/contractImplementation/contracts/KVstore.sol",
  "compiler": {
    "name": "solc",
    "version": "0.5.0+commit.1d4f565a.Emscripten.clang"
  },
  "schemaVersion": "3.0.16",
  "updatedAt": "2019-10-26T18:13:48.629Z",
  "devdoc": {
    "methods": {}
  },
  "userdoc": {
    "methods": {}
  }
}