{
  "contractName": "StandardContract",
  "abi": [
    {
      "constant": false,
      "inputs": [
        {
          "name": "_latitude",
          "type": "int32"
        },
        {
          "name": "_longitude",
          "type": "int32"
        },
        {
          "name": "_direction",
          "type": "uint16"
        },
        {
          "name": "_speed",
          "type": "uint16"
        },
        {
          "name": "_acceleration",
          "type": "int8"
        }
      ],
      "name": "updateState",
      "outputs": [],
      "payable": false,
      "stateMutability": "nonpayable",
      "type": "function"
    }
  ],
  "bytecode": "0x608060405234801561001057600080fd5b50610271806100206000396000f3fe608060405260043610610041576000357c0100000000000000000000000000000000000000000000000000000000900463ffffffff168063e6efb19014610046575b600080fd5b34801561005257600080fd5b506100b8600480360360a081101561006957600080fd5b81019080803560030b9060200190929190803560030b9060200190929190803561ffff169060200190929190803561ffff169060200190929190803560000b90602001909291905050506100ba565b005b6100c2610205565b60a0604051908101604052808760030b81526020018660030b81526020018561ffff1681526020018461ffff1681526020018360000b8152509050806000803373ffffffffffffffffffffffffffffffffffffffff1673ffffffffffffffffffffffffffffffffffffffff16815260200190815260200160002060008201518160000160006101000a81548163ffffffff021916908360030b63ffffffff16021790555060208201518160000160046101000a81548163ffffffff021916908360030b63ffffffff16021790555060408201518160000160086101000a81548161ffff021916908361ffff160217905550606082015181600001600a6101000a81548161ffff021916908361ffff160217905550608082015181600001600c6101000a81548160ff021916908360000b60ff160217905550905050505050505050565b60a060405190810160405280600060030b8152602001600060030b8152602001600061ffff168152602001600061ffff1681526020016000800b8152509056fea165627a7a7230582037781b794e4d501eb2c02c73d017df96012bdf5b913ad005a7844d5f3f514cc10029",
  "source": "pragma solidity ^0.5.0;\n\ncontract StandardContract {\n\n    mapping(address => StateVector) addressToStateVector_;\n\n    struct StateVector {\n        int32 latitude; // in DD(Decimal Degrees) - xx.xxxxx between 90 and -90\n        int32 longitude; // in DD(Decimal Degrees) - xx.xxxxx between 180 and -180\n        uint16 direction; // in degrees\n        uint16 speed; // in km/h\n        int8 acceleration; // in m/s^2\n    }\n\n  function updateState(int32 _latitude, int32 _longitude, uint16 _direction, uint16 _speed, int8 _acceleration) public {\n      StateVector memory stateVector = StateVector(_latitude, _longitude, _direction, _speed, _acceleration);\n      addressToStateVector_[msg.sender] = stateVector;\n  }\n}\n\n",
  "sourcePath": "/Users/Juuu/Library/Mobile Documents/com~apple~CloudDocs/Studium/Master/LMU Informatik (MA)/Thesis/contractImplementation/contracts/StandardContract.sol",
  "compiler": {
    "name": "solc",
    "version": "0.5.0+commit.1d4f565a.Emscripten.clang"
  },
  "schemaVersion": "3.0.16",
  "updatedAt": "2019-10-26T18:13:48.630Z",
  "devdoc": {
    "methods": {}
  },
  "userdoc": {
    "methods": {}
  }
}